:100000000C94E3000C9414010C9414010C9414014E
:100010000C9414010C9414010C9414010C9414010C
:100020000C9414010C9414010C9414010C941401FC
:100030000C9414010C9414010C9414010C941401EC
:100040000C9414010C9414010C9414010C941401DC
:100050000C9414010C9414010C9414010C94F602E9
:100060000C9414010C946A030C9440030C94140136
:100070000C9414010C9414010C9414010C941401AC
:100080000C9414010C9414010C9414010C9414019C
:100090000C9414010C9414010C9414010C9414018C
:1000A0000C9414010C9414010C9414010C9414017C
:1000B0000C9414010C9414010C9414010C9414016C
:1000C0000C9414010C9414010C9414010C9414015C
:1000D0000C9414010C9414010C9414010C9414014C
:1000E0000C9414010C948B010C9444050C941E0286
:1000F0000C9477010C9499010C943B010C946801C9
:100100000C94D10100002200250028002B002E00B5
:100110003100340002010000050108010B0100005C
:100120002100240027002A002D00300033000101A7
:100130000000040107010A01050505050705080877
:100140000808020202020A0A080804040404010161
:100150000101010101010303030303030303040776
:1001600007070C0C0C0C0C0C0C0C0202020206060D
:100170000606060606060B0B0B0B0B0B0B0B010200
:1001800010202008081020401020408002010201A9
:100190000804020101020408102040808040201061
:1001A00008040201800402018040201008040201BA
:1001B0000804020101020408102040800102040822
:1001C00010204080440511241FBECFEFD1E2DEBFD6
:1001D000CDBF00E00CBF22E0A6E3B2E001C01D925B
:1001E000A83FB207E1F712E0A0E0B2E0ECE8FFE0E0
:1001F00000E00BBF02C007900D92A633B107D9F7FC
:1002000010E0C3EED0E000E006C021970109802F86
:10021000FE010E94A605C23ED10780E00807A9F7AB
:100220000E94A0030C94C4070C9400003FB7F894FC
:100230008091F0029091F102A091F202B091F3024C
:1002400026B5A89B05C02F3F19F00196A11DB11D31
:100250003FBFBA2FA92F982F8827BC01CD01620F6D
:10026000711D811D911D42E0660F771F881F991F28
:100270004A95D1F70895AF92BF92CF92DF92EF9255
:10028000FF920F931F93CF93DF936C017B018B0140
:10029000040F151FEB015E01AE18BF08C017D10790
:1002A00059F06991D601ED91FC910190F081E02D1A
:1002B000C6011995892B79F7C501DF91CF911F915F
:1002C0000F91FF90EF90DF90CF90BF90AF90089587
:1002D000FC01538D448D252F30E0842F90E0821B4C
:1002E000930B541710F0CF96089501970895FC01D1
:1002F000918D828D981761F0A28DAE0FBF2FB11D29
:100300005D968C91928D9F5F9F73928F90E0089580
:100310008FEF9FEF0895FC01918D828D981731F03A
:10032000828DE80FF11D858D90E008958FEF9FEF8E
:100330000895FC01918D228D892F90E0805C9F4F64
:10034000821B91098F739927089586E392E00E949A
:10035000990121E0892B09F420E0822F0895FC0106
:10036000A48DA80FB92FB11DA35ABF4F2C91848D16
:1003700090E001968F739927848FA689B7892C9373
:10038000A089B1898C91837080648C93938D848DC6
:10039000981306C00288F389E02D80818F7D8083C9
:1003A0000895EF92FF920F931F93CF93DF93EC0189
:1003B00081E0888F9B8D8C8D98131AC0E889F9890C
:1003C000808185FF15C09FB7F894EE89FF8960830F
:1003D000E889F98980818370806480839FBF81E090
:1003E00090E0DF91CF911F910F91FF90EF900895D2
:1003F000F62E0B8D10E00F5F1F4F0F731127E02EAD
:100400008C8D8E110CC00FB607FCFACFE889F989E4
:10041000808185FFF5CFCE010E94AF01F1CFEB8D3A
:10042000EC0FFD2FF11DE35AFF4FF0829FB7F894B8
:100430000B8FEA89FB8980818062CFCFCF93DF93D6
:10044000EC01888D8823B9F0AA89BB89E889F989EC
:100450008C9185FD03C0808186FD0DC00FB607FC21
:10046000F7CF8C9185FFF2CF808185FFEDCFCE0154
:100470000E94AF01E9CFDF91CF91089580E090E035
:10048000892B29F00E94A50181110E94000080E0C3
:1004900090E0892B49F080E090E0892B29F00E94C0
:1004A000000081110E94000080E090E0892B49F05B
:1004B00080E090E0892B29F00E94000081110E94C9
:1004C000000080E090E0892B49F080E090E0892BEB
:1004D00029F00E94000081110C9400000895FC0195
:1004E00080819181009711F00C944A0608950F9332
:1004F0001F93CF93DF93EC0188819981009759F086
:100500002A813B812617370730F081E0DF91CF91B8
:100510001F910F9108958B016F5F7F4F0E94D3064B
:10052000009759F0998388831B830A832C813D812E
:10053000232B59F7FC011082E8CF80E0E7CFEF9240
:10054000FF920F931F93CF93DF936115710541F4D1
:1005500080E0DF91CF911F910F91FF90EF90089570
:1005600041155105B1F07B01EC010C811D81040F97
:10057000151FB8010E947702882351F32881398121
:100580008C819D81B701820F931F0E94BD071D833F
:100590000C8381E0DECFEF92FF920F931F93CF93F6
:1005A000DF93EC017B018A01BA010E947702288166
:1005B0003981811114C02115310519F0C9010E943A
:1005C0004A06198218821D821C821B821A82CE0161
:1005D000DF91CF911F910F91FF90EF9008951D83B0
:1005E0000C83B701C9010E94BD07F1CF1F920F9282
:1005F0000FB60F9211242F933F938F939F93AF9336
:10060000BF938091EC029091ED02A091EE02B09127
:10061000EF023091EB0223E0230F2D3758F50196BE
:10062000A11DB11D2093EB028093EC029093ED028B
:10063000A093EE02B093EF028091F0029091F1024C
:10064000A091F202B091F3020196A11DB11D809319
:10065000F0029093F102A093F202B093F302BF91E3
:10066000AF919F918F913F912F910F900FBE0F905F
:100670001F90189526E8230F0296A11DB11DD2CF19
:100680001F920F920FB60F9211240BB60F922F9359
:100690003F934F935F936F937F938F939F93AF930A
:1006A000BF93EF93FF9386E392E00E94AF01FF9127
:1006B000EF91BF91AF919F918F917F916F915F91DA
:1006C0004F913F912F910F900BBE0F900FBE0F9047
:1006D0001F9018951F920F920FB60F9211240BB610
:1006E0000F922F938F939F93EF93FF93E091460286
:1006F000F09147028081E0914C02F0914D0282FD21
:100700001DC0908180914F028F5F8F7320915002A6
:10071000821741F0E0914F02F0E0EA5CFD4F958FC7
:1007200080934F02FF91EF919F918F912F910F90A6
:100730000BBE0F900FBE0F901F9018958081F2CFC7
:10074000CF93DF93CDB7DEB76E970FB6F894DEBFC9
:100750000FBECDBF789484B5826084BD84B58160BE
:1007600084BD85B5826085BD85B5816085BD80917C
:100770006E00816080936E001092810080918100F4
:1007800082608093810080918100816080938100EC
:10079000809180008160809380008091B1008460AE
:1007A0008093B1008091B00081608093B00080910F
:1007B000910082608093910080919100816080938C
:1007C0009100809190008160809390008091A100C1
:1007D00082608093A1008091A10081608093A1003C
:1007E0008091A00081608093A000809121018260AF
:1007F000809321018091210181608093210180916A
:10080000200181608093200180917A008460809330
:100810007A0080917A00826080937A0080917A00D9
:10082000816080937A0080917A00806880937A005A
:100830001092C10020E332E008E112E0D8018D916E
:100840009D918D019927FC01E258FE4F4491885CEF
:100850009E4FFC0184918823C9F090E0880F991F76
:10086000FC01E25EFE4FA591B491FC01EC5FFE4FEE
:10087000659174919FB7F8948C91E42FE0958E2345
:100880008C93DB018C91E823EC939FBF20173107F9
:10089000A9F6E0914602F091470282E08083E09160
:1008A0004202F09143021082E0914402F09145022D
:1008B0008FEC808310924E02E0914A02F0914B023D
:1008C00086E08083E0914802F09149028081806156
:1008D0008083E0914802F0914902808188608083A2
:1008E000E0914802F0914902808180688083E09124
:1008F0004802F091490280818F7D8083FE0131960C
:100900007F0193EDC92E92E0D92ED601E8E1F2E005
:1009100080813296863308F0865320917B00982F91
:100920009870277F922B90937B00877080648093D0
:100930007C0080917A00806480937A0080917A00B4
:1009400086FDFCCF909178008091790089279827C7
:1009500089278D939D93E017F107D1F61A8E198E92
:100960001C8E1B8E1E8E1D8E50E040E064E372E0F4
:10097000CE0149960E94CB02B12CA12CD6018D91BB
:100980009D916D011C8A1B8A1E8A1D8A188E1F8AE2
:100990004AE0B7010E947105F70101900020E9F7D4
:1009A0003197AF014E195F09B701CE0143960E94FE
:1009B000CB024F89588D6B897C89CE0149960E9464
:1009C0009F02CE0143960E946F02BBE0AB16B104BA
:1009D000C1F01A8219821C821B821E821D8241E094
:1009E00050E060E372E0C7010E94CB024D815E815E
:1009F00069817A81CE0149960E949F02C7010E94B7
:100A00006F02EFEFAE1ABE0AFCE0AF16B10409F0B8
:100A1000B5CF4D8D5E8D698D7A8D86E392E00E9413
:100A20003B0142E050E062E372E086E392E00E9424
:100A30003B01CE0149960E946F020E9416012B01D4
:100A40003C018AE0882E912CA12CB12C0E94160129
:100A50006419750986099709683E734081059105F7
:100A6000A8F321E0821A9108A108B10888EE480E87
:100A700083E0581E611C711C81149104A104B1040F
:100A800029F70E943E023DCFE6E3F2E01382128294
:100A900088EE93E0A0E0B0E084839583A683B783DB
:100AA0008AE092E09183808385EC90E0958784874B
:100AB00084EC90E09787868780EC90E0918B808B28
:100AC00081EC90E0938B828B82EC90E0958B848B11
:100AD00086EC90E0978B868B118E128E138E148E7F
:100AE0000895BB274A3031F4992322F4BDE2909552
:100AF00081959F4F0C947D05BB27FB015527AA27A5
:100B0000880F991FAA1FA41710F0A41B839550519A
:100B1000B9F7A05DAA3308F0A95DA193009779F712
:100B2000B111B1931192CB010C949605DC01FC013B
:100B3000672F71917723E1F7329704C07C916D9311
:100B400070836291AE17BF07C8F30895EE0FFF1FC1
:100B5000881F8BBF0790F691E02D19940F931F9378
:100B6000CF93DF938230910510F482E090E0E09122
:100B7000F602F091F70230E020E0B0E0A0E030971C
:100B800099F42115310509F44AC0281B390B24308A
:100B90003105D8F58A819B816115710589F1FB01C9
:100BA00093838283FE0111C04081518102811381B0
:100BB00048175907E0F04817590799F4109761F062
:100BC00012960C93129713961C933296CF01DF91D5
:100BD000CF911F910F9108950093F6021093F702A1
:100BE000F4CF2115310551F04217530738F0A90110
:100BF000DB019A01BD01DF01F801C1CFEF01F9CF9F
:100C00009093F7028093F602CDCFFE01E20FF31F1F
:100C1000819391932250310939832883D7CF209132
:100C2000F4023091F502232B41F42091020230911D
:100C300003023093F5022093F402209100023091D8
:100C400001022115310541F42DB73EB74091040250
:100C500050910502241B350BE091F402F091F5024E
:100C6000E217F307A0F42E1B3F0B2817390778F083
:100C7000AC014E5F5F4F2417350748F04E0F5F1FE2
:100C80005093F5024093F402819391939FCFF0E04B
:100C9000E0E09CCFCF93DF930097E9F0FC0132971F
:100CA00013821282A091F602B091F702ED0130E0BA
:100CB00020E01097A1F420813181820F931F2091B1
:100CC000F4023091F5022817390709F061C0F0935A
:100CD000F502E093F402DF91CF910895EA01CE1777
:100CE000DF07E8F54A815B819E0141155105B1F7A7
:100CF000E901FB83EA8349915991C40FD51FEC1791
:100D0000FD0761F4808191810296840F951FE901AE
:100D100099838883828193819B838A83F0E0E0E0DA
:100D200012968D919C9113970097B9F52D913C9156
:100D30001197CD010296820F931F2091F4023091FA
:100D4000F5022817390739F6309751F51092F70256
:100D50001092F602B093F502A093F402BCCFD383B5
:100D6000C28340815181840F951FC817D90761F450
:100D70004E5F5F4F88819981480F591F518340838F
:100D80008A819B81938382832115310509F0B0CF3D
:100D9000F093F702E093F6029ECFFD01DC01C0CF95
:100DA00013821282D7CF4F925F926F927F928F926F
:100DB0009F92AF92BF92CF92DF92EF92FF920F93EA
:100DC0001F93CF93DF938C01009799F4CB01DF91B0
:100DD000CF911F910F91FF90EF90DF90CF90BF9038
:100DE000AF909F908F907F906F905F904F900C94FA
:100DF000AE05FC01E60FF71F9C0122503109E217F6
:100E0000F30708F4AEC0D901CD91DC911197C61754
:100E1000D70720F1C530D10578F0CE0104978617A9
:100E2000970750F0C61BD70B2297C193D1936D93B0
:100E30007C93CF010E944A06C801DF91CF911F9198
:100E40000F91FF90EF90DF90CF90BF90AF909F9069
:100E50008F907F906F905F904F9008955B01AC1AD8
:100E6000BD0A4C018C0E9D1EA091F602B091F702B6
:100E7000512C412CF12CE12C109731F58091F4028A
:100E80009091F5028815990509F05CC04616570641
:100E900008F058C08091000290910102009741F43F
:100EA0008DB79EB74091040250910502841B950BAB
:100EB000E817F90708F055C0F093F502E093F40243
:100EC000F90171836083B8CF8D919C91119712962F
:100ED0006C90129713967C901397A815B90559F545
:100EE0006C0142E0C40ED11CCA14DB0420F1AC0139
:100EF0004A195B09DA011296159780F062827382B3
:100F000051834083D9016D937C93E114F10471F016
:100F1000D7011396FC93EE9312978ECF22968C0FE7
:100F20009D1FF90191838083F301EFCFF093F702C6
:100F3000E093F60281CF4816590608F42C017D0192
:100F4000D3019ACFCB010E94AE057C01009749F0F6
:100F5000AE01B8010E94B407C8010E944A06870189
:100F60006BCF10E000E068CFFB01DC0102C0019014
:100F70000D9241505040D8F70895FB01DC010190DB
:0C0F80000D920020E1F70895F894FFCFD7
:100F8C000000F802800000000000D1013B01680164
:100F9C001E02990177018B013A003B003C003D0099
:100FAC003E003F0040004100420043004400450029
:060FBC007C000D0A00009C
:00000001FF
